:100000000C9435000C947B000C9452000C9452001C
:100010000C9452000C9452000C9452000C94520018
:100020000C9452000C9452000C9452000C94520008
:100030000C9452000C9452000C9454000C945200F6
:100040000C9452000C9452000C946B000C945200CF
:100050000C9452000C9452000C9452000C945200D8
:100060000C9452000C9452009D0011241FBECFEF3F
:10007000D8E0DEBFCDBF21E0A0E0B1E001C01D921D
:10008000A430B207E1F710E0C5E3D0E004C0219747
:10009000FE010E94D600C433D107C9F70E94A20016
:1000A0000C94DC000C9400001F920F920FB60F927C
:1000B00011248F939F9380910101909102010196E9
:1000C00090930201809301019F918F910F900FBE39
:1000D0000F901F9018951F920F920FB60F92112438
:1000E0008F938091C600809303018F910F900FBE74
:1000F0000F901F9018951F920F920FB60F92112418
:100100008F9380910001811110C081E080930001E4
:100110008091C00085FF03C088E58093C6008F9161
:100120000F900FBE0F901F901895109200018091B4
:10013000C00085FFF4CF89E5F0CF8091C6008093A1
:100140000301089552985A9A259A87E68093C4002D
:100150001092C50088E98093C10086E08093C200B8
:1001600083E08093690081E08DBB82E084BD85BD22
:1001700080936E0089EF87BD789490E22091010111
:1001800030910201203D37405CF0809103018C34B6
:1001900039F4109202011092010185B1892785B9C5
:1001A00080910301843451F72D98E8CFEE0FFF1FA3
:0C01B0000590F491E02D0994F894FFCF25
:00000001FF
