:020000040000FA
:100000000C9435000C947B000C9452000C9452001C
:100010000C9452000C9452000C9452000C94520018
:100020000C9452000C9452000C9452000C94520008
:100030000C9452000C9452000C9454000C945200F6
:100040000C9452000C9452000C946B000C945200CF
:100050000C9452000C9452000C9452000C945200D8
:100060000C9452000C9452009D0011241FBECFEF3F
:10007000D8E0DEBFCDBF21E0A0E0B1E001C01D921D
:10008000A430B207E1F710E0C5E3D0E004C0219747
:10009000FE010E94D600C433D107C9F70E94A20016
:1000A0000C94DC000C9400001F920F920FB60F927C
:1000B00011248F939F9380910101909102010196E9
:1000C00090930201809301019F918F910F900FBE39
:1000D0000F901F9018951F920F920FB60F92112438
:1000E0008F938091C600809303018F910F900FBE74
:1000F0000F901F9018951F920F920FB60F92112418
:100100008F9380910001811110C081E080930001E4
:100110008091C00085FF03C088E58093C6008F9161
:100120000F900FBE0F901F901895109200018091B4
:10013000C00085FFF4CF89E5F0CF8091C6008093A1
:100140000301089552985A9A259A87E68093C4002D
:100150001092C50088E98093C10086E08093C200B8
:1001600083E08093690081E08DBB82E084BD85BD22
:1001700080936E0089EF87BD789490E22091010111
:1001800030910201203D37405CF0809103018C34B6
:1001900039F4109202011092010185B1892785B9C5
:1001A00080910301843451F72D98E8CFEE0FFF1FA3
:0C01B0000590F491E02D0994F894FFCF25
:107E0000112484B714BE81FFF0D085E080938100F7
:107E100082E08093C00088E18093C10086E0809377
:107E2000C20080E18093C4008EE0C9D0259A86E02C
:107E300020E33CEF91E0309385002093840096BBD3
:107E4000B09BFECF1D9AA8958150A9F7CC24DD24C4
:107E500088248394B5E0AB2EA1E19A2EF3E0BF2EE7
:107E6000A2D0813461F49FD0082FAFD0023811F036
:107E7000013811F484E001C083E08DD089C08234E0
:107E800011F484E103C0853419F485E0A6D080C0E4
:107E9000853579F488D0E82EFF2485D0082F10E0AE
:107EA000102F00270E291F29000F111F8ED06801E7
:107EB0006FC0863521F484E090D080E0DECF843638
:107EC00009F040C070D06FD0082F6DD080E0C81688
:107ED00080E7D80618F4F601B7BEE895C0E0D1E017
:107EE00062D089930C17E1F7F0E0CF16F0E7DF06D8
:107EF00018F0F601B7BEE89568D007B600FCFDCFD4
:107F0000A601A0E0B1E02C9130E011968C91119780
:107F100090E0982F8827822B932B1296FA010C0160
:107F200087BEE89511244E5F5F4FF1E0A038BF0790
:107F300051F7F601A7BEE89507B600FCFDCF97BE46
:107F4000E89526C08437B1F42ED02DD0F82E2BD052
:107F50003CD0F601EF2C8F010F5F1F4F84911BD097
:107F6000EA94F801C1F70894C11CD11CFA94CF0C13
:107F7000D11C0EC0853739F428D08EE10CD085E9AC
:107F80000AD08FE07ACF813511F488E018D01DD067
:107F900080E101D065CF982F8091C00085FFFCCF94
:107FA0009093C60008958091C00087FFFCCF809118
:107FB000C00084FD01C0A8958091C6000895E0E648
:107FC000F0E098E1908380830895EDDF803219F02E
:107FD00088E0F5DFFFCF84E1DECF1F93182FE3DFCA
:107FE0001150E9F7F2DF1F91089580E0E8DFEE27F6
:047FF000FF270994CA
:027FFE00040479
:00000001FF
