:100000000C9434000C9453000C9451000C94510047
:100010000C9451000C9451000C9451000C9451001C
:100020000C9451000C9451000C9451000C9451000C
:100030000C9451000C9451000C9451000C945100FC
:100040000C9451000C9451000C9451000C945100EC
:100050000C9451000C9451000C9451000C945100DC
:100060000C9451000C94510011241FBECFEFD8E026
:10007000DEBFCDBF11E0A0E0B1E0E4E5F1E002C0F9
:1000800005900D92A030B107D9F721E0A0E0B1E0D2
:1000900001C01D92A230B207E1F70E9462000C94E9
:1000A000A8000C9400001F920F920FB60F9211241B
:1000B0008F9384E48093C6008F910F900FBE0F90B2
:1000C0001F90189552985A9A259A87E68093C400F3
:1000D0001092C50088E18093C10086E08093C20041
:1000E00083E08093690081E08DBB789421E030E06B
:1000F0004CE494E48091C600883531F52D9A4A99F4
:100100000FC06091000170910101672B49F480914B
:10011000C00085FD4093C60030930101209300018B
:100120004A9BE8CF60910001709101016130710537
:1001300009F710920101109200018091C00085FF23
:10014000D9CF9093C600D6CF8935C9F62D98D7CF91
:04015000F894FFCF51
:00000001FF
