:100000000C9434000C943E000C943E000C943E0082
:100010000C943E000C943E000C943E000C943E0068
:100020000C943E000C943E000C943E000C943E0058
:100030000C943E000C943E000C943E000C943E0048
:100040000C943E000C943E000C943E000C943E0038
:100050000C943E000C943E000C943E000C943E0028
:100060000C943E000C943E0011241FBECFEFD8E04C
:10007000DEBFCDBF0E9440000C9468000C940000CD
:1000800052985A9A259A87E68093C4001092C50028
:1000900088E98093C10086E08093C200E89A80914D
:1000A0006900826080936900789498E58091C60029
:1000B0008C3451F42D9A4A99F9CF8091C00085FF74
:1000C000F5CF9093C600F2CF8434A9F72D98F3CFE3
:0400D000F894FFCFD2
:00000001FF
