:100000000C9434000C943E000C943E000C943E0082
:100010000C943E000C943E000C943E000C943E0068
:100020000C943E000C943E000C943E000C943E0058
:100030000C943E000C943E000C943E000C943E0048
:100040000C943E000C943E000C943E000C943E0038
:100050000C943E000C943E000C943E000C943E0028
:100060000C943E000C943E0011241FBECFEFD8E04C
:10007000DEBFCDBF0E9440000C9483000C940000B2
:100080008FE78AB92098289A80E09FE62FE73DE71E
:100090004DE656E66FE47BE5E6E0FFE318990AC01B
:1000A000AFEFB3ECC9E0A150B040C040E1F700C0F1
:1000B00000008F5F811102C0FBB9F0CF813011F4D5
:1000C000EBB9ECCF823011F47BB9E8CF833011F477
:1000D0006BB9E4CF843011F45BB9E0CF853011F413
:1000E0004BB9DCCF863011F43BB9D8CF873011F44F
:1000F0008BB9D4CF883011F42BB9D0CF893071F6B9
:0A0100009BB98FEFCBCFF894FFCF2F
:00000001FF
