:100000000C9434000C946A000C9451000C94510030
:100010000C9451000C9451000C9451000C9451001C
:100020000C9451000C9451000C9451000C9451000C
:100030000C9451000C9451000C9453000C945100FA
:100040000C9451000C9451000C9451000C945100EC
:100050000C9451000C9451000C9451000C945100DC
:100060000C9451000C94510011241FBECFEFD8E026
:10007000DEBFCDBF11E0A0E0B1E0EEE0F2E002C0F3
:1000800005900D92A230B107D9F721E0A2E0B1E0CE
:1000900001C01D92A530B207E1F70E947B000C94CD
:1000A00005010C9400001F920F920FB60F921124BD
:1000B0008F939F93809103019091040101969093F7
:1000C0000401809303019F918F910F900FBE0F90B9
:1000D0001F9018951F920F920FB60F9211248F93B5
:1000E00081E080930001809302018F910F900FBEF9
:1000F0000F901F90189522985A9A8AB1886F8AB9E2
:1001000080916900826080936900E89A82E084BDF2
:1001100085BD99EF97BD80936E005D9A5E9A789445
:10012000E4EFF1E031E020E48091030190910401DB
:1001300040910201413061F480349F4149F4809143
:1001400000018F5F8093000110920401109203015F
:10015000809100018C3029F430930001109202014B
:100160005B988091000187301CF45F985E9A5D9ADD
:1001700080910001873011F45D985C9A80910001B4
:10018000883011F45C985B9A80910001893011F4F9
:100190005E985F9A809100018A3034F25F98809176
:1001A000030190910401BF010E94DD00892B09F039
:1001B000BBCF8BB182278BB9B7CF97FB072E16F435
:1001C000009407D077FD09D00E94F10007FC05D00C
:1001D0003EF4909581959F4F0895709561957F4F5E
:1001E0000895AA1BBB1B51E107C0AA1FBB1FA6177E
:1001F000B70710F0A61BB70B881F991F5A95A9F7D0
:0E02000080959095BC01CD010895F894FFCF34
:02020E000100ED
:00000001FF
