:020000040000FA
:100000000C9434000C946A000C9451000C94510030
:100010000C9451000C9451000C9451000C9451001C
:100020000C9451000C9451000C9451000C9451000C
:100030000C9451000C9451000C9453000C945100FA
:100040000C9451000C9451000C9451000C945100EC
:100050000C9451000C9451000C9451000C945100DC
:100060000C9451000C94510011241FBECFEFD8E026
:10007000DEBFCDBF11E0A0E0B1E0EEE0F2E002C0F3
:1000800005900D92A230B107D9F721E0A2E0B1E0CE
:1000900001C01D92A530B207E1F70E947B000C94CD
:1000A00005010C9400001F920F920FB60F921124BD
:1000B0008F939F93809103019091040101969093F7
:1000C0000401809303019F918F910F900FBE0F90B9
:1000D0001F9018951F920F920FB60F9211248F93B5
:1000E00081E080930001809302018F910F900FBEF9
:1000F0000F901F90189522985A9A8AB1886F8AB9E2
:1001000080916900826080936900E89A82E084BDF2
:1001100085BD99EF97BD80936E005D9A5E9A789445
:10012000E4EFF1E031E020E48091030190910401DB
:1001300040910201413061F480349F4149F4809143
:1001400000018F5F8093000110920401109203015F
:10015000809100018C3029F430930001109202014B
:100160005B988091000187301CF45F985E9A5D9ADD
:1001700080910001873011F45D985C9A80910001B4
:10018000883011F45C985B9A80910001893011F4F9
:100190005E985F9A809100018A3034F25F98809176
:1001A000030190910401BF010E94DD00892B09F039
:1001B000BBCF8BB182278BB9B7CF97FB072E16F435
:1001C000009407D077FD09D00E94F10007FC05D00C
:1001D0003EF4909581959F4F0895709561957F4F5E
:1001E0000895AA1BBB1B51E107C0AA1FBB1FA6177E
:1001F000B70710F0A61BB70B881F991F5A95A9F7D0
:1002000080959095BC01CD010895F894FFCF010031
:107E0000112484B714BE81FFF0D085E080938100F7
:107E100082E08093C00088E18093C10086E0809377
:107E2000C20080E18093C4008EE0C9D0259A86E02C
:107E300020E33CEF91E0309385002093840096BBD3
:107E4000B09BFECF1D9AA8958150A9F7CC24DD24C4
:107E500088248394B5E0AB2EA1E19A2EF3E0BF2EE7
:107E6000A2D0813461F49FD0082FAFD0023811F036
:107E7000013811F484E001C083E08DD089C08234E0
:107E800011F484E103C0853419F485E0A6D080C0E4
:107E9000853579F488D0E82EFF2485D0082F10E0AE
:107EA000102F00270E291F29000F111F8ED06801E7
:107EB0006FC0863521F484E090D080E0DECF843638
:107EC00009F040C070D06FD0082F6DD080E0C81688
:107ED00080E7D80618F4F601B7BEE895C0E0D1E017
:107EE00062D089930C17E1F7F0E0CF16F0E7DF06D8
:107EF00018F0F601B7BEE89568D007B600FCFDCFD4
:107F0000A601A0E0B1E02C9130E011968C91119780
:107F100090E0982F8827822B932B1296FA010C0160
:107F200087BEE89511244E5F5F4FF1E0A038BF0790
:107F300051F7F601A7BEE89507B600FCFDCF97BE46
:107F4000E89526C08437B1F42ED02DD0F82E2BD052
:107F50003CD0F601EF2C8F010F5F1F4F84911BD097
:107F6000EA94F801C1F70894C11CD11CFA94CF0C13
:107F7000D11C0EC0853739F428D08EE10CD085E9AC
:107F80000AD08FE07ACF813511F488E018D01DD067
:107F900080E101D065CF982F8091C00085FFFCCF94
:107FA0009093C60008958091C00087FFFCCF809118
:107FB000C00084FD01C0A8958091C6000895E0E648
:107FC000F0E098E1908380830895EDDF803219F02E
:107FD00088E0F5DFFFCF84E1DECF1F93182FE3DFCA
:107FE0001150E9F7F2DF1F91089580E0E8DFEE27F6
:047FF000FF270994CA
:027FFE00040479
:00000001FF
