:100000000C9434000C9451000C9451000C94510049
:100010000C9451000C9451000C9451000C9451001C
:100020000C9451000C9451000C9451000C9451000C
:100030000C9451000C9451000C9453000C945100FA
:100040000C9451000C9451000C9451000C945100EC
:100050000C9451000C9451000C9451000C945100DC
:100060000C9451000C94510011241FBECFEFD8E026
:10007000DEBFCDBF11E0A0E0B1E0E0E9F1E002C0F9
:1000800005900D92A031B107D9F721E0A0E1B1E0D0
:1000900001C01D92A231B207E1F70E9477000C94D3
:1000A000C6000C9400001F920F920FB60F921124FD
:1000B0002F938F939F93809110019091110101963E
:1000C0009093110180931001809110019091110182
:1000D0008034964024F010921101109210019F91EB
:1000E0008F912F910F900FBE0F901F901895CF9367
:1000F000DF9300D0CDB7DEB78FEF8AB91A821982AD
:1001000083E480937C0080917A00836880937A00F6
:1001100080917E00846080937E0082E084BD85BDF6
:1001200099EF97BD80936E00789480917A008064F7
:1001300080937A0080917A0086FDFCCF80917800D0
:10014000909179009A83898389819A81892B11F40E
:100150001BB8EBCF89819A81C2975CF48091100122
:10016000909111018032934014F45F9ADECF5F9832
:10017000DCCFE981FA81EE0FEF2FEE1FFF0BEE0FC0
:10018000FF1FE050FF4F80818BB9CFCFF894FFCF96
:100190008000C000E000F000F800FC00FE00FF005E
:00000001FF
