:100000000C9434000C9440000C943E000C943E0080
:100010000C943E000C943E000C943E000C943E0068
:100020000C943E000C943E000C943E000C943E0058
:100030000C943E000C943E000C943E000C943E0048
:100040000C943E000C943E000C943E000C943E0038
:100050000C943E000C943E000C943E000C943E0028
:100060000C943E000C943E0011241FBECFEFD8E04C
:10007000DEBFCDBF0E9452000C945D000C940000C6
:100080001F920F920FB60F9211248F939F9385B1F9
:1000900090E2892785B99F918F910F900FBE0F90A5
:1000A0001F901895259A2D985A9A80916900816021
:0E00B00080936900E89A7894FFCFF894FFCF10
:00000001FF
