:100000000C9434000C9440000C9463000C943E005B
:100010000C943E000C943E000C943E000C943E0068
:100020000C943E000C943E000C943E000C943E0058
:100030000C943E000C943E000C943E000C943E0048
:100040000C943E000C943E000C943E000C943E0038
:100050000C943E000C943E000C943E000C943E0028
:100060000C943E000C943E0011241FBECFEFD8E04C
:10007000DEBFCDBF0E9481000C9492000C94000062
:100080001F920F920FB60F9211242F938F939F936D
:1000900099B18BB192FD06C087FD04C08BB190E48D
:1000A00089278BB92FEF82E597E02150804090405F
:1000B000E1F700C000009F918F912F910F900FBE2C
:1000C0000F901F9018951F920F920FB60F92112448
:1000D0002F938F939F938BB180588BB92FEF82E52D
:1000E00097E0215080409040E1F700C000004B9B1A
:1000F0005E989F918F912F910F900FBE0F901F9040
:10010000189522988BB18C608BB98AB1806C8AB9B2
:10011000809169008A60809369008DB383608DBB94
:080120007894FFCFF894FFCFA3
:00000001FF
