:100000000C9434000C9446000C9446000C9446006A
:100010000C9446000C9446000C9446000C94460048
:100020000C9446000C9446000C9446000C94460038
:100030000C9446000C9446000C9446000C94460028
:100040000C9446000C9446000C9446000C94460018
:100050000C9446000C9446000C9446000C94460008
:100060000C9446000C94460011241FBECFEFD8E03C
:10007000DEBFCDBF21E0A0E0B1E001C01D92A03005
:10008000B207E1F70E9448000C9499000C9400001C
:100090008091810089608093810080916F008260EF
:1000A00080936F008CE790E09093890080938800A4
:1000B00080917C00806480937C0080917A008668C7
:1000C00080937A0080917E00816080937E0084B569
:1000D000836884BD85B5826085BD569A8AB1806388
:1000E0008AB98BB18C608BB9789480917A008064E6
:1000F00080937A0080917A0086FFF7CF8091780014
:100100009091790096958795969587954A9906C01E
:100110004B9904C02BB12F7C2BB904C04A9904C061
:100120005C9A5D9887BDE6CF4B99F4CF5D9A5C9859
:06013000F9CFF894FFCFA7
:00000001FF
