:100000000C9434000C9451000C9451000C94510049
:100010000C9451000C9451000C9451000C9451001C
:100020000C9451000C9451000C9451000C9451000C
:100030000C9451000C9451000C9453000C945100FA
:100040000C9451000C9451000C9451000C945100EC
:100050000C9451000C9451000C9451000C945100DC
:100060000C9451000C94510011241FBECFEFD8E026
:10007000DEBFCDBF11E0A0E0B1E0E0E9F1E002C0F9
:1000800005900D92A031B107D9F721E0A0E1B1E0D0
:1000900001C01D92A431B207E1F70E946A000C94DE
:1000A000C6000C9400001F920F920FB60F921124FD
:1000B0008F939F93809112019091130101969093D9
:1000C0001301809312019F918F910F900FBE0F909B
:1000D0001F901895209885B1836085B98AB188678B
:1000E0008AB982E084BD85BD99EF97BD80936E008B
:1000F000789427E030E080911201909113018032D2
:100100009340C9F7189918C0199B16C0E0911001C7
:10011000F0911101EE0FFF1FE050FF4F80818BB96E
:1001200080911001909111018730910561F4109236
:1001300011011092100102C018990BC01092130106
:1001400010921201D8CF0196909311018093100163
:10015000F5CF1999F3CF809110019091110100977B
:1001600079F43093110120931001E0911001F09186
:100170001101EE0FFF1FE050FF4F80818BB9DECFE2
:1001800001979093110180931001EFCFF894FFCF66
:1001900008001800100030002000600040004800F7
:00000001FF
